:100000002FC100005EC100005CC100005AC10000A9
:1000100058C1000056C1000054C1000052C1000088
:1000200050C100004EC100004CC100004AC1000098
:1000300048C1000046C1000044C1000042C10000A8
:1000400040C100003EC100003CC100003AC10000B8
:1000500038C1000036C1000034C100000C94512D9D
:1000600030C100000C94822F0C94B82F2AC10000DC
:1000700028C1000026C1000024C1000022C10000E8
:1000800020C100001EC100001CC100001AC10000F8
:100090000C940E300C94443014C1000012C10000C6
:1000A00010C100000EC100000CC100000AC1000018
:1000B00008C1000006C1000004C1000002C1000028
:1000C00000C10000FEC000000C94841C0C949A3007
:1000D0000C94D030F6C000000C9426310C945C31A6
:1000E000F0C00000084AD73B3BCE016E84BCBFFD88
:1000F000C12F3D6C74319ABD56833DDA3D00C77FF8
:1001000011BED9E4BB4C3E916BAAAABE0000008090
:100110003F072C7AA5BA6CC590DA3B9365FC8BBC83
:1001200053F810FD3C5692834DBD879D3AB63DCBAA
:10013000C9BF5BBE73DA0FC93F05A84CCDB2D44E20
:10014000B93836A9020C50B9918688083CA6AAAAEB
:100150002ABE000000803F00001D3A2774694E53FC
:10016000E8F5D2CF9C81A6BBCDD0F7EAB9A4839E97
:1001700025381F02514C6B76879ABDA0F3EEC9D487
:100180006F7255481B06213C4A57706D3E23041977
:10019000A2BF9885D6CBECF1130E2934677A5D4067
:1001A000FBE6C1DC8F92B5A8DEC3E4F9AAB7908D57
:1001B000362B0C11425F78659489AEB3E0FDDAC747
:1001C0007C61465B0815322F5944637E2D30170A37
:1001D000B1AC8B96C5D8FFE2263B1C01524F687527
:1001E000CED3F4E9BAA7809DEBF6D1CC9F82A5B817
:1001F000031E3924776A4D50A1BC9B86D5C8EFF207
:100200004954736E3D20071A6C71564B1805223FF6
:100210008499BEA3F0EDCAD735280F12415C7B66E6
:10022000DDC0E7FAA9B4938EF8E5C2DF8C91B6ABD6
:10023000100D2A3764795E43B2AF8895C6DBFCE1C6
:100240005A47607D2E3314097F6245580B16312CB6
:10025000978AADB0E3FED9C4E12F6D30F930853116
:1002600011241FBECFEFD1E2DEBFCDBF00E00CBF37
:1002700014E0A0E0B2E0E6E1F7E600E00BBF02C068
:1002800007900D92A430B107D9F729E0A4E0B4E0BB
:1002900001C01D92A635B207E1F711E0C0E3D1E03D
:1002A00000E006C021970109802FFE010E9415324F
:1002B000CC32D10780E00807A9F70E94A8280C9447
:1002C00089339ECE2F923F926F927F928F929F9210
:1002D000AF92BF92CF92DF92EF92FF920F931F9354
:1002E000CF93DF9300D000D0CDB7DEB71B013C0128
:1002F00089014E835D8320E030E0A901B8018E8141
:100300009D810E94142A811125C020E030E0A901BE
:10031000B101C3010E94142A882309F46BC0610152
:100320007301B601C70126960FB6F894DEBF0FBE63
:10033000CDBFDF91CF911F910F91FF90EF90DF9094
:10034000CF90BF90AF909F908F907F906F903F9095
:100350002F900895B101C3010E943D0F882349F0F9
:10036000C0904409D0904509E0904609F0904709B3
:10037000D8CFB8018E819D810E943D0F8111F0CFB1
:10038000B101C3010E94F80E8111EACF20E030E0F4
:10039000A901B101C3010E94142A81110BC0980167
:1003A0004E815D8160E070E0CB010E941B2A6B01F1
:1003B0007C01B7CFB8018E819D810E94F80E882301
:1003C000E9F020E030E0A901B8018E819D810E9412
:1003D000142AF82EFF1CFF24FF1C20E030E0A901A6
:1003E000B101C3010E94142A881F8827881FF816AC
:1003F00009F495CF6801EE80FD8093CF98014E817E
:100400005D81B101C3010E940B2B6B017C01BB24F8
:10041000B39420E030E0A9010E94142A8111B12C8C
:1004200020E030E0A901B601C7010E94142A882308
:1004300009F447C0B8018E819D810E94F12A9B0179
:10044000AC01B8018E819D810E94802C1816CCF5DC
:1004500098014E815D81B101C3010E941B2A4B01AD
:100460005C01E894B7F820E030E040E05FE3C501CC
:10047000B4010E944E290E94F12A9B01AC01C501E2
:10048000B4010E944D299B01AC015F7729833A8317
:100490004B835C8320E030E040E054E3C501B401CD
:1004A0000E948B2C9B01AC01BB24B39469817A819F
:1004B0008B819C810E94802C18160CF0B12C81E05D
:1004C000B82620E030E0A901BB2031F0B8018E81D0
:1004D0009D810E948B2C6BCFB101C3010E94142A15
:1004E000B82EBB1CBB24BB1C20E030E0A901B80126
:1004F0008E819D810E94142A881F8827881FB81624
:1005000009F40FCF98014E815D81B601C7010E94A9
:100510004E294DCF8F929F92AF92BF92CF92DF9292
:10052000EF92FF92CF93DF936B017C0149015A0157
:100530000E943D0F882399F060914409709145090C
:100540008091460990914709DF91CF91FF90EF90FC
:10055000DF90CF90BF90AF909F908F900895C5018E
:10056000B4010E943D0F8111E7CFC701B6010E947F
:10057000F80E8823E1F1C501B4010E94F80E88232A
:10058000B1F120E030E0A901C701B6010E94802C42
:10059000CFEFDFEF181614F4C1E0D0E020E030E038
:1005A000A901C501B4010E94802C6FEF7FEF1816DE
:1005B00014F461E070E0072E000C880B990B0E9488
:1005C000B62A6B017C01BE01DD0F880B990B0E94DE
:1005D000B62AA7019601DF91CF91FF90EF90DF90AF
:1005E000CF90BF90AF909F908F900C94C12920E046
:1005F00030E0A901C501B4010E94142A811116C07E
:1006000020E030E0A901C701B6010E94802C181635
:1006100094F020E030E0A901C701B6010E94142A3D
:1006200087FD0EC060E070E0CB018ECFA501940184
:10063000C701B601D0CF6BED7FE089EC9FE384CF9B
:100640006BED7FE089EC9FEB7FCF2F923F924F9233
:100650005F926F927F928F929F92AF92BF92CF9252
:10066000DF92EF92FF920F931F93CF93DF93CDB75B
:10067000DEB76A970FB6F894DEBF0FBECDBF2091EC
:10068000DA023091DB024091DC025091DD02E09110
:10069000E304F091E404608171818281938112DE30
:1006A00060939F087093A0088093A1089093A2087C
:1006B00020E030E0A9010E94142A882309F463C2D3
:1006C00081E080933709E1E2F8E0A7E7B8E04191E3
:1006D0005191619171914D935D936D937D9388E0FC
:1006E000E533F807A1F78090AA029090AB02A090A2
:1006F000AC02B090AD0220E030E0A901C501B40128
:100700000E94142A18160CF490C5D12CC0903709F9
:100710004090C6025090C7026090C8027090C90213
:100720008090C2029090C302A090C402B090C50213
:1007300056E9E52E52E0F52E07E718E0CC2029F027
:10074000A5019401D801D11003C0A3019201D701E2
:100750006D917D918D919C910E948B2CF801648B01
:10076000758B868B978B0C5F1F4FF4E0EF0EF11C9F
:1007700088E00B38180711F7C090EE02D090EF0216
:10078000E090F002F090F1022091CA023091CB0289
:100790004091CC025091CD02C701B6010E944D2973
:1007A0004B015C018092A3089092A408A092A50836
:1007B000B092A60820918B0830918C0840918D084A
:1007C00050918E08C701B6010E944D296093A70879
:1007D0007093A8088093A9089093AA088092AB0808
:1007E0009092AC08A092AD08B092AE082091DE02C3
:1007F0003091DF024091E0025091E102C701B60161
:100800000E944D296093AF087093B0088093B1089F
:100810009093B2088092B3089092B408A092B50861
:10082000B092B6082091CE023091CF024091D00212
:100830005091D102C701B6010E944D294B015C01C4
:100840008092B7089092B808A092B908B092BA08FE
:1008500020918F0830919008409191085091920812
:10086000C701B6010E944D296093BB087093BC0874
:100870008093BD089093BE088092BF089092C008F4
:10088000A092C108B092C2082091E2023091E30226
:100890004091E4025091E502C701B6010E944D2942
:1008A0006093C3087093C4088093C5089093C608EA
:1008B0008092C7089092C808A092C908B092CA084E
:1008C0002091D2023091D3024091D4025091D502AE
:1008D000C701B6010E944D294B015C018092CB08F3
:1008E0009092CC08A092CD08B092CE0820919308A7
:1008F000309194084091950850919608C701B6012F
:100900000E944D296093CF087093D0088093D1083E
:100910009093D2088092D3089092D408A092D508E0
:10092000B092D6082091E6023091E7024091E802A9
:100930005091E902C701B6010E944D296093D70882
:100940007093D8088093D9089093DA088092DB08D6
:100950009092DC08A092DD08B092DE082091D602C9
:100960003091D7024091D8025091D902C701B60107
:100970000E944D294B015C01809233099092340909
:10098000A0923509B09236098092DF089092E00873
:10099000A092E108B092E20820919708309198085F
:1009A0004091990850919A08C701B6010E944D29BB
:1009B0006093E3087093E4088093E5089093E60859
:1009C0008092E7089092E808A092E908B092EA08BD
:1009D0002091EA023091EB024091EC025091ED023D
:1009E000C701B6010E944D296093EB087093EC0893
:1009F0008093ED089093EE088092EF089092F008B3
:100A0000A092F108B092F208C090F202D090F302E6
:100A1000E090F402F090F502C092F308D092F4084E
:100A2000E092F508F092F60845E3242E48E0342ED3
:100A300007EF18E0A1E2B8E0BA8FA98F8DE498E043
:100A4000D801F10141915191619171914D935D9363
:100A50006D937D938E179F07A9F78FEF9FEFDC01B2
:100A600080936D0890936E08A0936F08B093700800
:100A70008091710890917208A0917308B0917408E8
:100A800082309105A105B10509F4C5C583309105F2
:100A9000A105B10509F482C60197A105B10509F0C8
:100AA0008DC620E030E040E85FE3C701B6010E9458
:100AB000142A81115CC482E090E0A0E0B0E0809351
:100AC000710890937208A0937308B09374086091B2
:100AD0005D0870915E0880915F08909160080E94A7
:100AE000832AFB013A96EE0FFF1FEE0FFF1FE95816
:100AF000F74F008111812281338100934D081093BB
:100B00004E0820934F0830935008FB013F96EE0F9C
:100B1000FF1FEE0FFF1FE958F74F0081118122815F
:100B20003381009351081093520820935308309357
:100B30005408FB017496EE0FFF1FEE0FFF1FE958DC
:100B4000F74F008111812281338100935508109362
:100B500056082093570830935808675E7F4F660FFA
:100B6000771F660F771FFB01E958F74F808191814E
:100B7000A281B3818093590890935A08A0935B088F
:100B8000B0935C0802C42091B6023091B702409144
:100B9000B8025091B9026091BA027091BB02809183
:100BA000BC029091BD02B6DC6B017C01C09233099E
:100BB000D0923409E0923509F09236092BED3FE0EE
:100BC00049EC5FEB0E94802C87FD0BC02BED3FE0D2
:100BD00049EC5FE3C701B6010E94142A11E0181620
:100BE000DCF520E030E0A901C701B6010E94142A1B
:100BF00087FF10C02BED3FE049E450E4C701B60188
:100C00000E944E296093330970933409809335090B
:100C100090933609C0903309D0903409E09035099B
:100C2000F090360920E030E0A901C701B6010E942A
:100C3000802C181684F42BED3FE049E450E4C70102
:100C4000B6010E944D296093330970933409809353
:100C500035099093360910E06091B6027091B702A1
:100C60008091B8029091B902C090BA02D090BB02B4
:100C7000E090BC02F090BD029B01AC010E948B2C65
:100C80004B015C01A7019601C701B6010E948B2CA4
:100C90009B01AC01C501B4010E944E290E94F82CB1
:100CA000112309F4D6C16093270970932809809312
:100CB000290990932A0920E030E04CE852E4609141
:100CC000BE027091BF028091C0029091C1020E9449
:100CD0004D2960932B0970932C0980932D099093D3
:100CE0002E0910923709312C212C01E0B101032C7F
:100CF000000C880B990B0E94B62A25E33AEF4EE8C8
:100D00005CE30E948B2C2BED3FE049EC50E40E9409
:100D10004D2960932F097093300980933109909386
:100D20003209409027095090280960902909709055
:100D30002A0980902B0990902C09A0902D09B09041
:100D40002E09A3019201C301B2010E948B2C6B01F9
:100D50007C01A5019401C501B4010E948B2C9B016B
:100D6000AC01C701B6010E944E290E94F82C6B010C
:100D70007C01A3019201C501B401CCDB2BED3FE066
:100D800049EC5FE30E944D292B013C010E94182A87
:100D90006D837E838F8398872BED3FE049EC5FE383
:100DA00060912F0970913009809131099091320939
:100DB0000E944D294B015C010E94182A69877A879D
:100DC0008B879C872D813E814F815885C701B60155
:100DD0000E948B2C6D837E838F83988720E030E088
:100DE00049E353E469857A858B859C850E948B2C29
:100DF0009B01AC016D817E818F8198850E944D2978
:100E00006D837E838F839887C301B2010E94EE2C8D
:100E10002B013C01C501B4010E94EE2C4B015C0189
:100E2000A3019201C701B6010E948B2C6B017C01CA
:100E300020E030E049E353E4C501B4010E948B2C6B
:100E40009B01AC01C701B6010E944D2969877A87D1
:100E50008B879C879B01AC010E948B2C6B017C01D2
:100E60002D813E814F815885CA01B9010E948B2C8A
:100E70009B01AC01C701B6010E944E290E94F82CCB
:100E80006B017C0120E030E0A9010E94142A1816B1
:100E90000CF070C0A7019601C701B6010E948B2C0F
:100EA0002B013C01AC019B0160E074E284EF96E40D
:100EB0000E944D2920E034E244EF56E40E941B2AB0
:100EC0004B015C0120E030E040E85FE30E94802CB1
:100ED00018160CF4C0C020E030E040E85FEBC5011C
:100EE000B4010E94142A87FDB6C0C501B4010E9456
:100EF0003F294B015C0111E020E034E244E756E475
:100F0000C301B2010E944E2920E034E244E756E4D6
:100F10000E944D292B013C01A7019601C701B60192
:100F20000E944E2920E030E04AEF52E40E948B2CD0
:100F30009B01AC01C301B2010E941B2A6B017C0121
:100F400020E030E040E85FE30E94802C181694F027
:100F500020E030E040E85FEBC701B6010E94142AB0
:100F600087FD08C0C701B6010E943F292B013C0143
:100F7000111176C010923709C12CD12C76012601AF
:100F800037014D825E826F827886809137098111A8
:100F900009C09FEF291A390AA1ED2A16A2E03A06E4
:100FA00009F0A4CE2BED3FE049EC5FE360913309FB
:100FB0007091340980913509909136090E944D292C
:100FC0002BED3FE049EC5FE30E944E2960937708E8
:100FD000709378088093790890937A082BED3FE01E
:100FE00049EC5FE3C701B6010E944E2960937B087C
:100FF00070937C0880937D0890937E082BED3FE0F2
:1010000049EC5FE3C301B2010E944E2960937F085F
:101010007093800880938108909382082BED3FE0C5
:1010200049EC5FE36D817E818F8198850E944E2916
:101030006093830870938408809385089093860852
:1010400010928708109288081092890810928A08D6
:101050004ACB905828CE10E0812C912C54014CCFD3
:10106000009337092D813E814F81588569857A85A6
:101070008B859C854FDAA30192010E944D296B015B
:101080007C01A50194016BED7FE089E490E40E946E
:101090004D294B015C012BED3FE049EC5FE3609192
:1010A0002F097091300980913109909132090E9485
:1010B0004D2969877A878B879C8726E33DE847EA35
:1010C0005FEBC701B6010E94802C87FD43C026E379
:1010D0003DE847EA5FE3C701B6010E94142A1816EB
:1010E000CCF12BED3FE049EC5FEBC501B4010E9470
:1010F000802C87FD2FC02BED3FE049EC5FE3C5015D
:10110000B4010E94142A18162CF1A70196016985D2
:101110007A858B859C850E944D29A50194010E94AA
:101120004D296D837E838F8398872BED3FE049ECBB
:101130005FEB0E94802C87FD0DC02BED3FE049EC5A
:101140005FE36D817E818F8198850E94142A181635
:101150000CF068C0A3019201C301B2010E944E29A4
:101160009B01AC01C701B6010E944E296B017C01B5
:101170002401350177FA709477F87094AC019B01E3
:1011800069857A858B859C850E944D29A5019401EE
:101190000E944E296D837E838F83988726E33DE8E6
:1011A00047EA5FEBC701B6010E94802C87FD37C07C
:1011B00026E33DE847EA5FE3C701B6010E94142A2F
:1011C00018166CF12BED3FE049EC5FE3C501B4016B
:1011D0000E94142A18161CF12BED3FE049EC5FEB3E
:1011E000C501B4010E94802C87FD19C02BED3FE0A2
:1011F00049EC5FEB6D817E818F8198850E94802C08
:1012000087FD0DC02BED3FE049EC5FE36D817E81F2
:101210008F8198850E94142A18160CF0B6CE109271
:101220003709B3CE24013501B0CE8091AE02909142
:10123000AF02A091B002B091B1028D839E83AF83C3
:10124000B88720E030E0A901BC01CD010E94142A3A
:1012500018160CF05ACA2D813E814F815885C50160
:10126000B4010E94142A18160CF04FCAC090BE0296
:10127000D090BF02E090C002F090C10220E030E0C8
:10128000A901C701B6010E94142A87FD3ECA6091D8
:10129000B6027091B7028091B8029091B902409065
:1012A000BA025090BB026090BC027090BD029B01DC
:1012B000AC010E948B2C69877A878B879C87A3015E
:1012C0009201C301B2010E948B2C9B01AC01698584
:1012D0007A858B859C850E944E292B013C0140928A
:1012E0003309509234096092350970923609A7018A
:1012F0009601C701B6010E948B2CA30192010E94A6
:101300004E2969877A878B879C87A5019401C5013F
:10131000B4010E948B2C9B01AC0169857A858B8579
:101320009C850E94802C18160CF4EFC92D813E81FB
:101330004F815885CA01B9010E948B2C9B01AC01D9
:10134000C301B2010E94142A87FF0EC02091B2028D
:101350003091B3024091B4025091B502C701B60179
:101360000E94142A87FDD1C9DD24D394CFC9F80186
:1013700081919191A191B1918F01848B958BA68BD5
:10138000B78BF9E00F301F0791F7E7E7F8E04191DD
:10139000519161917191A98DBA8D4D935D936D932A
:1013A0007D93BA8FA98FB8E0EB38FB0781F7EFE0A8
:1013B000F9E087E299E04191519161917191D101F8
:1013C0004D935D936D937D931D018E179F0799F744
:1013D00082E090E00E940E1CE091E304F091E404AE
:1013E000408151816281738190E080E00E940A1CFB
:1013F0006091D8047091D9048091DA049091DB0453
:101400000E94B42A20E030E040E85FE40E948B2C88
:101410006B017C016091D4047091D5048091D60455
:101420009091D7040E94B42A9B01AC01C701B60178
:101430000E944E292AE037ED43EA5CE30E948B2CA0
:10144000AB01BC0181E090E00E940A1C8090DC04AA
:101450009090DD04A090DE04B090DF0420E030E046
:1014600040E85FEBC501B4010E94142A0091E30437
:101470001091E404882319F1F801C080D180E28042
:10148000F380A7019601C501B4010E944D294B01CB
:101490005C0120E030E040E054E3C701B6010E9467
:1014A0008B2C9B01AC01C501B4010E94802C181645
:1014B00034F082E193E0909333048093320480917E
:1014C000E204882331F082E193E090933304809327
:1014D0003204C090C804D090C904E090CA04F090CF
:1014E000CB04FFEFCF1ADF0AEF0AFF0AC092C8044D
:1014F000D092C904E092CA04F092CB04C114D10482
:10150000E104F10499F48091CC049091CD04A09170
:10151000CE04B091CF040196A11DB11D8093CC04DF
:101520009093CD04A093CE04B093CF048090D004C8
:101530009090D104A090D204B090D3046091CC04D8
:101540007091CD048091CE049091CF040E94B42A72
:10155000A50194010E948B2C20E030E040E85FE47C
:101560000E948B2C2B013C01C701B6010E94B42ABA
:10157000A50194010E948B2C9B01AC01C301B20117
:101580000E944E29D8016D937D938D939C93139760
:101590008091D4049091D504A091D604B091D70441
:1015A0000196A11DB11D8093D4049093D504A093FE
:1015B000D604B093D704892B8A2B8B2B99F4809176
:1015C000D8049091D904A091DA04B091DB0401967B
:1015D000A11DB11D8093D8049093D904A093DA047F
:1015E000B093DB046A960FB6F894DEBF0FBECDBF92
:1015F000DF91CF911F910F91FF90EF90DF90CF90EF
:10160000BF90AF909F908F907F906F905F904F9022
:101610003F902F900895C090F708D090F808E09080
:10162000F908F090FA0880914D0890914E08A09129
:101630004F08B091500889879A87AB87BC8711E023
:101640009C01AD01C701B6010E94142A811110E06E
:1016500019838090FB089090FC08A090FD08B09042
:10166000FE088091510890915208A0915308B091C2
:1016700054088D879E87AF87B88B11E09C01AD0120
:10168000C501B4010E94142A811110E01A838091CF
:10169000FF0890910009A0910109B09102098D8382
:1016A0009E83AF83B8878091550890915608A0918A
:1016B0005708B0915808898B9A8BAB8BBC8B11E083
:1016C0009C01AD016D817E818F8198850E94142AD5
:1016D000811110E01B834090030950900409609031
:1016E0000509709006098091590890915A08A091B7
:1016F0005B08B0915C088D8B9E8BAF8BB88F11E02F
:101700009C01AD01C301B2010E94142A811110E0B5
:101710001C83FE013196CE0105962191222309F406
:10172000E2C0E817F907C9F784E090E0A0E0B0E074
:101730008093710890937208A0937308B093740813
:10174000C0905D08D0905E08E0905F08F09060085F
:1017500020E030E040E85FE3C701B6010E94142AB0
:10176000882379F020E030E040E450E4C701B6017E
:101770000E94142A811109CE80E090E0A0E2B1E439
:1017800004C080E090E0A8E4B2E480936508909300
:101790006608A0936708B0936808F7CD20E030E0B2
:1017A000A90160916108709162088091630890912D
:1017B00064080E94142A8111E8CD7DC980906508D3
:1017C00090906608A0906708B0906808A501940101
:1017D000609123097091240980912509909126092F
:1017E0000E94142A81114AC083E090E0A0E0B0E09A
:1017F0008093710890937208A0937308B093740853
:10180000C0905D08D0905E08E0905F08F09060089E
:1018100020E030E040EA50E4C701B6010E94142AFB
:1018200087FF11C020E030E040E85FE3C701B60168
:101830000E944E2960935D0870935E0880935F0854
:1018400090936008A2CD80E090E0A0E8BFE3809391
:10185000610890936208A0936308B0936408F8014C
:1018600081919191A191B1918F01848B958BA68BE0
:10187000B78BF9E00F301F0791F787CDC0900B09A8
:10188000D0900C09E0900D09F0900E09A701960187
:10189000C501B4010E94802C181654F420E030E0F9
:1018A00040E85FE3C701B6010E944E296B017C014D
:1018B000A7019601C501B4010E94142A87FF0AC03E
:1018C00020E030E040E85FE3C701B6010E944D2907
:1018D0006B017C01C0922309D0922409E092250972
:1018E000F092260952CD29853A854B855C85C70142
:1018F000B6010E94142A87FF0AC020E030E040E8C9
:101900005FE3C701B6010E944E296B017C01A7016C
:10191000960169857A858B859C850E94142A87FFAC
:101920000AC020E030E040E85FE3C701B6010E9452
:101930004D296B017C01C0920F09D0921009E092F1
:101940001109F09212092D853E854F855889C501F0
:10195000B4010E94142A87FF0AC020E030E040E86A
:101960005FE3C501B4010E944E294B015C01A50152
:1019700094016D857E858F8598890E94142A87FF42
:101980000AC020E030E040E85FE3C501B4010E94F6
:101990004D294B015C018092130990921409A09289
:1019A0001509B092160929893A894B895C896D819C
:1019B0007E818F8198850E94142A87FF0EC020E0C7
:1019C00030E040E85FE36D817E818F8198850E94E1
:1019D0004E296D837E838F8398872D813E814F8131
:1019E000588569897A898B899C890E94142A87FF86
:1019F0000EC020E030E040E85FE36D817E818F81A2
:101A000098850E944D296D837E838F8398878D8171
:101A10009E81AF81B8858093170990931809A09390
:101A20001909B0931A092D893E894F89588DC30130
:101A3000B2010E94142A87FF0AC020E030E040E88B
:101A40005FE3C301B2010E944E292B013C01A301B7
:101A500092016D897E898F89988D0E94142A87FF53
:101A60000AC020E030E040E85FE3C301B2010E9419
:101A70004D292B013C0140921B0950921C09609298
:101A80001D0970921E0981CCCF93DF9384E090E012
:101A900078D1E2E3F4E08BEBDF011D928A95E9F760
:101AA00080EE94E0909339048093380483EE94E0C0
:101AB000909373048093720480ED94E090934704B4
:101AC00080934604F0939D04E0939C04F0933704C4
:101AD000E093360481E090E09093E1048093E00489
:101AE00086E293E090933D0480933C0425EE34E03D
:101AF0003093E4042093E30480E090E0A0E8BFEB9F
:101B00008093DC049093DD04A093DE04B093DF04A3
:101B10008AE097EDA3EABCE38093D0049093D104CC
:101B2000A093D204B093D3048AE597EFA8EDB4ED67
:101B30008093B6049093B704A093B804B093B9040B
:101B400082E291E5A7EEBEEC8093BA049093BB04C9
:101B5000A093BC04B093BD0488EC95E1ACE7B1E17F
:101B60008093BE049093BF04A093C004B093C104BB
:101B700086ED9CE0ADE0B3E78093C2049093C3048C
:101B8000A093C404B093C50486E294E09093350416
:101B90008093340488E194E0909327048093260492
:101BA00088E393E0909319048093180490931B04A6
:101BB00080931A0490931D0480931C0490931F0437
:101BC00080931E0490932104809320049093230417
:101BD00080932204909325048093240486EC94E05F
:101BE00090932B0480932A0486EB94E0909329042D
:101BF0008093280430932D0420932C04E7E7F8E029
:101C000081ECDF011D928A95E9F7E1E2F8E086E5D3
:101C1000DF011D928A95E9F7EEE0F4E08AE0DF014A
:101C20001D928A95E9F784E094E09093C70480932D
:101C3000C6048EE090E090930504809304048AE744
:101C400092E090930704809306048EE592E09093CF
:101C500009048093080482E192E090930B0480933E
:101C60000A0486E092E090930D0480930C04809126
:101C7000F2029091F302A091F402B091F5028093E8
:101C8000F3089093F408A093F508B093F608A1E246
:101C9000B8E0E6E9F2E041915191619171914D9383
:101CA0005D936D937D9382E0EA3AF807A1F78FEF99
:101CB0009FEFDC0180936D0890936E08A0936F08EE
:101CC000B0937008E6EFF2E0C5E3D8E0AFE0B9E02A
:101CD000419151916191719149935993699379938C
:101CE0001D921D921D921D9283E0EE30F80781F740
:101CF00081E08093750881E090E0A0E0B0E08093FF
:101D0000710890937208A0937308B093740880E0F0
:101D100090E0A0E8BFE380935D0890935E08A093F5
:101D20005F08B093600880E090E0A0E2B1E48093A7
:101D3000650890936608A0936708B0936808DF91E0
:101D4000CF910895089560E070E080E89FE70895DE
:101D500060E070E080E89FE7089560E070E080E870
:101D60009FEF089560E070E080E89FEF089560E0E5
:101D700070E080EC9FEF089560E070E080EC9FEFF2
:101D80000895F5DF609344097093450980934609EF
:101D900090934709F1DF6093380970933909809374
:101DA0003A0990933B09CFDF609340097093410952
:101DB0008093420990934309CBDF60933C09709371
:101DC0003D0980933E0990933F09C7DF609348091E
:101DD0007093490980934A0990934B09C3DF60933C
:101DE0004C0970934D0980934E0990934F090895C3
:101DF000CF92DF92EF92FF92CF936B017C01AC0107
:101E00009B01609140097091410980914209909134
:101E100043090E94142AC1E0882371F0A7019601AA
:101E2000609148097091490980914A0990914B0944
:101E30000E94142A8111C0E08C2FCF91FF90EF9067
:101E4000DF90CF9008950F931F938B019C01002783
:101E5000112720783F770115110520483F4749F4A5
:101E6000AB01BC016F77772781E0452B462B472BD1
:101E700009F480E01F910F910895E5CFEF92FF9252
:101E80000F931F93CF93DF93EA01F901DC011496BE
:101E9000ED90FC90159712964D915C9113974E0D15
:101EA0005F1D2881398118960D911C911997021791
:101EB000130730F00D911C911197012B09F441C0CB
:101EC0008A01021B130BDC0118968D919C918E19CF
:101ED0009F09800F911F86179707DCF1C901860FB4
:101EE000971F8417950778F4718360833383228367
:101EF000158214821782168288819981680F791F52
:101F00007983688316C01183008333832283601B27
:101F1000710B7583648390E080E01616170614F445
:101F20009E2D8F2D96838783D701A60FB71FB98368
:101F3000A88380E0DF91CF911F910F91FF90EF90E8
:101F4000089518968D919C91821B930B8617970785
:101F50005CF681E0EFCFCF92DF92EF92FF92CF93CA
:101F6000DF936B0184E4869FE001879FD00D1124ED
:101F7000C351DB4F8AA99BA9009721F00E94E73249
:101F80001BAA1AAA84E48C9DF0018D9DF00D1124EA
:101F9000E351FB4F86A997A9009711F00E94E73201
:101FA00084E48C9DF0018D9DF00D1124E351FB4FD5
:101FB000138A128A168A178A108E118E128E138E29
:101FC000148E158E168E178E10A211A281E090E04D
:101FD00093A382A315A214A216A217A210A611A65B
:101FE00013A612A615A614A616A617A610AA11AA1D
:101FF00013AA12AA15AA14AA17AA16AA11AE10AEED
:1020000012AE13AE14AE15AEDF01DE961D921D9218
:102010001D921C921397EE5BFF4F11821082DF918D
:10202000CF91FF90EF90DF90CF900895CF93DF9303
:10203000FB01DC016D917C91DB011696CD91DC9169
:102040008081918123E0880F991F2A95E1F7AA8169
:10205000BB81A80FB91F8D919C911197248535855F
:10206000220F331FEB016A817B81EB01C20FD31F6B
:102070000990D881C02D14962D913C9161E070E0BB
:10208000232B11F062E070E0C69F9001C79F300DD6
:10209000D69F300D1124A085B1852A9FB0012B9FBA
:1020A000700D3A9F700D1124A481B5812A9FF00113
:1020B0002B9FF00D3A9FF00D11248E0F9F1FFA01F8
:1020C0009183808373836283DF91CF9108952F92F0
:1020D0003F924F925F926F927F928F929F92AF92B8
:1020E000BF92CF92DF92EF92FF920F931F93CF9305
:1020F000DF9300D000D0CDB7DEB7DC011496ED91B0
:10210000FC910190F081E02D808591859A838983EF
:10211000A281B381BC83AB83FB0181909190A1909C
:10212000B190C12CD12C7601C814D904EA04FB0467
:10213000CCF026960FB6F894DEBF0FBECDBFDF9170
:10214000CF911F910F91FF90EF90DF90CF90BF90B4
:10215000AF909F908F907F906F905F904F903F9047
:102160002F90089544805580668077804085518502
:1021700062857385CF0140969E838D83A081B18156
:102180009D0183E0220F331F8A95E1F7A981BA816F
:1021900012968D919C91D901A80FB91F2D903C905A
:1021A00011970484F585E02DEE0FFF1F8B819C8134
:1021B000E80FF91F0190F081E02D14968D919C910C
:1021C000892B41F581E090E0E89F9001E99F300D77
:1021D000F89F300D1124249F8001259F100D349FFE
:1021E000100D1124249DC001259D900D349D900D4E
:1021F0001124A8016D817E81820D931D0E94703390
:10220000ED81FE81E00FF11F9FEFC91AD90AE90A9B
:10221000F90A8ACF82E090E0D7CFCF93DF93DB013A
:10222000A25FBC4F2C91222369F024E4269FF00189
:10223000279FF00D1124E351FB4FEF0119922A95CE
:10224000E9F71C9224E4269FF001279FF00D11244A
:10225000E351FB4F14821582168217821186108675
:1022600013861286118A108A17861686DF91CF91FF
:1022700072CE2F923F924F925F926F927F928F9287
:102280009F92AF92BF92CF92DF92EF92FF920F9305
:102290001F93CF93DF9300D000D01F921F92CDB732
:1022A000DEB724E4269FF001279FF00D1124E351AF
:1022B000FB4F0481158126813781012B022B032BD3
:1022C00009F4B7C02A016B017C0110E000E0812C09
:1022D000912C54013F019F01285F3F4F3C832B838A
:1022E000CF0104969E838D83AB81BC818D919C919F
:1022F000ED81FE8140815181628173818416950652
:10230000A606B706E4F10E94E732D3011A968D9132
:102310009C91892B09F07EC084E48C9DD0018D9D19
:10232000B00D1124A351BB4FBC83AB8350968D914C
:102330009C910E94E732EB81FC81868597850E9403
:10234000E732C701B60107DEC701B60128960FB60E
:10235000F894DEBF0FBECDBFDF91CF911F910F91DB
:10236000FF90EF90DF90CF90BF90AF909F908F90B5
:102370007F906F905F904F903F902F904ECFFC01D9
:10238000E00FF11F92819983A381AA839F83A8877D
:10239000312C212C2414350464F089819A810E9407
:1023A000E732EFEF8E1A9E0AAE0ABE0A0C5F1F4F8D
:1023B0009BCFAF81B885ED91FD91B887AF83309702
:1023C00059F0848195810E94E732EF81F885329738
:1023D000808191810E94E732BFEF2B1A3B0ADACF4E
:1023E000800F911FFC01848195810E94E7322B812F
:1023F0003C812F5F3F4F3C832B83025F1F4FF501D2
:10240000808191812B813C81241535054CF30E94FC
:10241000E73282CF10E000E01C821B8224E42C9D76
:10242000C0012D9D900D1124DC01A950BB4F5D0111
:10243000E6CF28960FB6F894DEBF0FBECDBFDF9172
:10244000CF911F910F91FF90EF90DF90CF90BF90B1
:10245000AF909F908F907F906F905F904F903F9044
:102460002F90089524E4269FF001279FF00D11245A
:10247000E351FB4F828993890497029758F485E0D2
:1024800090E0938B828B8FEF9FEFDC01828F938F95
:10249000A48FB58F08952F923F924F925F926F92C3
:1024A0007F928F929F92AF92BF92CF92DF92EF92E4
:1024B000FF920F931F93CF93DF93CDB7DEB7AA9709
:1024C0000FB6F894DEBF0FBECDBF9AA389A37E8B53
:1024D0006D8B1A01098B1A8B2B8B3C8B84E4298919
:1024E0003A89829F6001839FD00C11248601035199
:1024F0001B4F89899A89AB89BC89F80180839183B4
:10250000A283B383AB01BC01CD01B3DED601AF50D2
:10251000BB4F84E0F10101900D928A95E1F7F4E060
:102520002F0E311C64E070E0D80114968D919C91BF
:102530000E943132F80191878087892B09F0F5C01C
:102540004D895E8969897A898B899C8992DE81E0CF
:10255000AA960FB6F894DEBF0FBECDBFDF91CF9124
:102560001F910F91FF90EF90DF90CF90BF90AF90B1
:102570009F908F907F906F905F904F903F902F90A3
:102580000895A9A5BAA58D919C91E98DFA8DE80FC2
:10259000F91FF88FEF8BD1018D919C91880F991FB6
:1025A000A9A1BAA1ED91FC91E80FF91F8081918159
:1025B000EF89F88D91838083D10114962D913D91FF
:1025C0004D915C9117972BA33CA34DA35EA362E0B2
:1025D00070E08D899E890E943132EF89F88D938356
:1025E0008283892B09F4ACCFF8E02F0E311C412CEB
:1025F000512C32012BA13CA14DA15EA142165306E4
:10260000640675069CF02B8D3C8D4D8D5E8D2F5F85
:102610003F4F4F4F5F4F2B8F3C8F4D8F5E8F498DBC
:102620005A8D4C5F5F4F5A8F498F90C0610124E0F3
:10263000C20ED11CD101ED90FC90EE0CFF1CEF8975
:10264000F88D82819381E80EF91E68E070E081E0E8
:1026500090E00E9431328C01D7018D939C93892B9D
:1026600009F46ECF84E0F601D80101900D928A95AD
:10267000E1F7B8E02B0E311CF80180819181A28135
:10268000B381181619061A061B06DCF464E070E024
:102690000E943132D80115969C938E931497892B02
:1026A00009F44ECFD12CC12C812C912C5401F8016E
:1026B00080819181A281B38188169906AA06BB0602
:1026C00034F0FFEF4F1A5F0A6F0A7F0A93CFF801C9
:1026D000E480F580EC0CFD1C80E1F101DE01119637
:1026E00001900D928A95E1F7F0E12F0E311CA701C0
:1026F000BE016F5F7F4FA9A1BAA114968D919C91E5
:1027000095DCF80186819781D70112962D913C9135
:10271000820F931F97838683BFEF8B1A9B0AAB0AA6
:10272000BB0AE4E0CE0ED11CC2CF1A8E198E1B8ECE
:102730001C8E1D8E1E8E18A30F8FA8014C5F5F4F3D
:1027400058A74FA3C80108969AA789A7EFA1F8A593
:1027500080819181A281B3812B8D3C8D4D8D5E8DC9
:10276000281739074A075B070CF40BCF6EE070E0BF
:102770008D899E890E943132AF8DB8A11B969C93A2
:102780008E931A97B12CA12CD12CC12CF12CE12CB9
:1027900024E4E989FA892E9FC0012F9F900D11240E
:1027A0009C0129503B4F388F2F8B88248394912C88
:1027B0004D895E89C416D50654F184E4A989BA8985
:1027C0008A9F80018B9F100D112403511B4FF8012C
:1027D00015861486C70133E0880F991F3A95E1F7F3
:1027E0000E944B32D80151969C938E935097892B1F
:1027F00009F4A6CEC701880F991F0E944B32F80139
:1028000097878687892B09F49BCE80E0A1CED101E2
:102810004D905D906D907D901D0177FC91CEEF897C
:10282000F88D008111810A0D1B1DD80111969C9213
:102830008E92411451046104710429F1C2010E9475
:102840004B32F80195838483892B09F479CEF80102
:102850005382428284819581978386839187808782
:102860001386128681E090E045284628472811F417
:1028700090E080E0E80EF91EFFEFCF1ADF0A2EE0AD
:10288000A20EB11C95CF15961C921E921497DFCF05
:102890002F923F924F925F926F927F928F929F9270
:1028A000AF92BF92CF92DF92EF92FF920F931F935E
:1028B000CF93DF93CDB7DEB76A970FB6F894DEBF3C
:1028C0000FBECDBF9E8B8D8B49015A0184E4829F40
:1028D0007001839FF00C1124970123513B4F690134
:1028E000FB0180819181F901958B848BD701AD5FCC
:1028F000BA4FFB01349684E001900D928A95E1F77E
:10290000D701A95FBA4FFB01389684E001900D9280
:102910008A95E1F7D701A55FBA4FFB013C9684E0A9
:1029200001900D928A95E1F7D701A55EBA4FFB01A0
:10293000709684E001900D928A95E1F78B010C5E10
:102940001F4FF90186A597A5A0A9B1A918161906C8
:10295000DCF5880F991F880F991F0E944B32F601F2
:1029600093AB82AB892B09F4D3C0312C212C412CA1
:10297000512C32019601225D3F4F388F2F8BC601BB
:10298000C2969A8F898FF496FC8BEB8BB301A201D0
:102990002FEF421A520A620A720AEF89F88D80817B
:1029A0009181A281B381481759076A077B070CF40C
:1029B0007BC0F60184A995A90E944B32F60197AB22
:1029C00086AB892B09F4A4C0F80180819181A28192
:1029D000B38124E4289DF001299DF00D1124E351D9
:1029E000FB4FAC01BD014D7F21E030E0452B462B74
:1029F000472B11F030E020E033A322A324E4289DEC
:102A0000F001299DF00D1124E351FB4F0197A1091D
:102A1000B10921E030E00297A105B10510F030E0E6
:102A200020E035A324A3D701AD5EBA4FF801349658
:102A300084E001900D928A95E1F784E4889DF0018D
:102A4000899DF00D1124E351FB4F868D978DA0A138
:102A5000B1A1B7FF58C0B095A095909581959F4FB3
:102A6000AF4FBF4F82AF93AFA4AFB5AF168E178EE7
:102A700010A211A280E06A960FB6F894DEBF0FBED6
:102A8000CDBFDF91CF911F910F91FF90EF90DF901D
:102A9000CF90BF90AF909F908F907F906F905F90FE
:102AA0004F903F902F900895E98DFA8D808191810C
:102AB0009C01220D331D3A8B298B80E1F801DE0148
:102AC000119601900D928A95E1F7005F1F4F498999
:102AD0005A89BE016F5F7F4FED89FE8984819581A0
:102AE000A5DAEB89FC8980819181E989FA892281C3
:102AF0003381820F931FEB89FC8991838083F4E0FB
:102B00002F0E311C43CF12AE13AE14AE15AEB2CFA2
:102B1000C501B40120DA81E0AECFCF92DF92EF920F
:102B2000FF92CF93DF931092750524E4269FF00166
:102B3000279FF00D1124E351FB4F15A614A630E09A
:102B400020E0D12CC12CDF011A96C1E0D0E0C416E0
:102B5000D506F4F024E4269FF001279FF00D112400
:102B6000E351FB4F13A612A611AE10AEDF01DE96A5
:102B70001D921D921D921C92139782E090E0938B00
:102B8000828BDF91CF91FF90EF90DF90CF900895EF
:102B9000ED91FC911197E20FF31FE280F3801E1478
:102BA0001F0454F4E480F580F782E682F186E08623
:102BB00013861286D183C083EFEFCE1ADE0A225F1E
:102BC0003F4FC5CF24E4269FF001279FF00D11242D
:102BD000E351FB4F138A128A4CCB24E4269FF00169
:102BE000279FF00D1124E351FB4F82899389813097
:102BF0009105C8F08530910518F0059769F00895A2
:102C00008FEF9FEFDC01828F938FA48FB58F85E0CC
:102C100090E0938B828B08958FEF9FEFDC01828F82
:102C2000938FA48FB58F089524E4249FD001259F0E
:102C3000B00D1124A351BB4F2EE0AC01249FC00165
:102C4000259F900D11241A96ED91FC91E80FF91F24
:102C500081E0809375058285938591878087408583
:102C600051852681378181E090E04217530711F0AA
:102C700090E080E09183808308952F923F924F925D
:102C80005F926F927F928F929F92AF92BF92CF92FC
:102C9000DF92EF92FF920F931F93CF93DF93CDB705
:102CA000DEB7C055D1090FB6F894DEBF0FBECDBF59
:102CB0009EAF8DAF4BA75CA76DA77EA7680179017A
:102CC00084E4809FF001819FF00D1124E351FB4FBC
:102CD0002285338523963FAF2EAF23978289938930
:102CE000029761F486A597A5A0A9B1A9892B8A2B83
:102CF0008B2BC9F584E090E0938B828B84E48C9DD0
:102D0000F0018D9DF00D1124E351FB4F82899389D1
:102D10008230910509F037C282AD93ADA4ADB5AD57
:102D200022242394312C181619061A061B060CF4BB
:102D30002FC2C05BDF4F0FB6F894DEBF0FBECDBF12
:102D4000DF91CF911F910F91FF90EF90DF90CF9087
:102D5000BF90AF909F908F907F906F905F904F90BB
:102D60003F902F900895848995894DAD5EAD84176D
:102D7000950721F606A917A918AE1FAA1BAA1CAA17
:102D80001DAA1EAA1F01CF018E9627969FAF8EAF58
:102D90002797DF01D2962996BFAFAEAF2997F89655
:102DA0002B96FFAFEEAF2B9791012A5D3F4F2D96EB
:102DB0003FAF2EAF2D97A1014E5D5F4F2F965FAFB6
:102DC0004EAF2F970A9761969FAF8EAF6197279668
:102DD000EEADFFAD279780819181A281B3812BA9B0
:102DE0003CA94DA95EA9281739074A075B0744F09B
:102DF00081E090E0D101D9969C938E93D8977ECFB5
:102E00002996AEADBFAD2997ED91FC912FA938ADB4
:102E1000E20FF31F428153815AAF49AF50815FAF38
:102E2000818121968FAF21972B96AEADBFAD2B97A9
:102E30008D919C91892B21F12D96EEADFFAD2D97B3
:102E400080809180A280B3801AAB09AB5FA72196E6
:102E5000FFAD2197F8AB29AD3AAD3695279536955C
:102E6000279525963FAF2EAF25971CAE1BAE259616
:102E7000AEADBFAD2597EBADFCADEA17FB070CF18E
:102E800049AD5AAD6FAD21967FAD2197C8010E9423
:102E9000703389AD9AAD8C7F080F191F2BA93CA9FF
:102EA0004DA95EA92F5F3F4F4F4F5F4F2BAB3CAB00
:102EB0004DAB5EAB4FA958AD4C5F5F4F58AF4FABBA
:102EC00086CF2F96AEADBFAD2F978D919C91892B5C
:102ED00071F1EFA5F8A94080518062807380A30151
:102EE0009201C501B4010E94142A181664F0A9A920
:102EF000BAA92D913D914D915C91C501B4010E94FB
:102F0000802C1816BCF1A3019201C501B4010E94E6
:102F1000142A87FF0CC0E9A9FAA9208131814281D6
:102F20005381C501B4010E94142A882319F16196C6
:102F3000AEADBFAD61978D919C91892B09F445C0D1
:102F4000EFA5F8A94080518062807380A3019201AF
:102F5000C501B4010E94802C18161CF5A9A9BAA9B4
:102F60002D913D914D915C91C501B4010E94142AAF
:102F700018165CF184E48C9DF0018D9DF00D1124F8
:102F8000E351FB4F868D978DA0A1B1A1892B8A2B90
:102F90008B2B69F183E090E0938B828B81E090E052
:102FA0002CC0A3019201C501B4010E94142A811111
:102FB0000CC0E9A9FAA92081318142815381C50160
:102FC000B4010E94142A87FDD5CF2BAD3CAD2F5FF5
:102FD0003F4F3CAF2BAF49A95AA94C5F5F4F5AAB4B
:102FE00049AB8FA598A9049698AB8FA740CF84E0F2
:102FF00090E0938B828B86AD97AD93A782A77ECE10
:10300000EBADFCAD80819181F401EE0FFF1FEE0F5F
:10301000FF1FE80FF91FA081B1818C9181110AC0B7
:10302000FFEF8F1A9F0AAF0ABF0A8DA29EA2AFA21E
:10303000B8A68FC18330A1F30280F381E02D2FA9C0
:1030400038ADE20FF31F808191819AAB89AB892B58
:1030500039F34F5F5F4F6F4F7F4F49875A876B87B9
:103060007C879E01235E3F4FAE01475D5F4F64E06A
:1030700070E0C8010E943E0F8111D0C18D819E81F8
:10308000AF81B8850496A11DB11D8D839E83AF834A
:10309000B8874D8D5E8DBE016B5D7F4F8F8D98A182
:1030A0000E9470338BA19CA1009761F06D8D7E8D85
:1030B000A5E2B0E0AC0FBD1F6A0F7B1F49A15AA16A
:1030C0000E9470331CAA1BAA412C512C3201E9A981
:1030D000FAA980819181A281B381481659066A06B6
:1030E0007B060CF09DCFE9A9FAA9848195812BA9D3
:1030F0003CA9280F391F38AB2FA7D90112966D9123
:103100007C919E01235E3F4FAE01475D5F4FC8013A
:103110000E943E0F811182C1EFA5F8A9828193819F
:10312000092E000CAA0BBB0B4D815E816F81788547
:10313000840F951FA61FB71F8D839E83AF83B8870B
:10314000608171814D8D5E8D8F8D98A10E9470334D
:103150008BA19CA1009761F0AFA5B8A96D917C915E
:103160002D8D3E8D620F731F49A15AA10E947033AD
:10317000BFEF4B1A5B0A6B0A7B0AEBA9FCA93496DA
:10318000FCABEBABA4CF312C212C049709F0D1CDB3
:103190008EE0EDADFEAD8E9F80018F9F100D11244E
:1031A00023962EAD3FAD2397020F131FD801129621
:1031B0004D915C9113974115510509F4BACD1696BE
:1031C0008D919C919AA789A780E1FE013196DF013C
:1031D0001D928A95E9F7C98ADA8AEB8AFC8A21145A
:1031E000310409F458C084E48C9DF0018D9DF00DEC
:1031F0001124E351FB4FDF01DE968D909D90AD9041
:10320000BC9082AD93ADA4ADB5AD88169906AA0663
:10321000BB0609F040C0F801848195810084F185E6
:10322000E02D349624E0DE01559601900D922A950A
:10323000E1F72D893E89285F3F4F3E8B2D8BD801CA
:1032400018966D917C911997260F371F19963C930C
:103250002E93189718962D913C911997480F591F46
:10326000241B350B37FD06C0820F931F19969C93C4
:103270008E93189784E48C9DF0018D9DF00D1124A0
:10328000E55DFA4FB1E08B1A9108A108B108808280
:103290009182A282B3829E012B5E3F4FAE01475DB9
:1032A0005F4F64E170E0C8010E943E0F8111B6C01B
:1032B0008CE090E0A0E0B0E08D839E83AF83B88780
:1032C0009E01235E3F4FAE01475D5F4F64E070E0BB
:1032D000C8010E943E0F8111A1C080E190E0A0E0F2
:1032E000B0E08D839E83AF83B8874D8D5E8DBE0128
:1032F000655D7F4F8F8D98A10E9470338BA19CA13B
:10330000009761F06D8D7E8DEBE2F0E0EC0FFD1F1C
:103310006E0F7F1F49A15AA10E9470331DA21EA2E9
:103320001FA218A62DAD3EAD220F331F38AF2FAB15
:1033300024E42C9DC0012D9D900D112483519B4FA1
:10334000AC014C5F5F4F5AAF49AFDC011896BCAF80
:10335000ABAF8DA09EA0AFA0B8A449855A856B8560
:103360007C85E9ADFAAD80819181A281B381881617
:103370009906AA06BB060CF443CE452B462B472BD9
:1033800009F4D7CC8AE190E0A0E0B0E089839A8389
:10339000AB83BC832DAD3EADC901330FAA0BBB0B74
:1033A0008D879E87AF87B88B4D895E89BE016F5F21
:1033B0007F4F8F89988D0E9470338B8D9C8D0097E5
:1033C00061F06D897E8941E050E04C0F5D1F640F14
:1033D000751F498D5A8D0E94703389A59AA5D80111
:1033E00017969C938E93169711961C921E922328E3
:1033F00009F49FCC84E48C9DF0018D9DF00D112487
:10340000E55DFA4F80819181A281B3810196A11D72
:10341000B11D80839183A283B3838BCC232809F0D1
:1034200088CC84E48C9DF0018D9DF00D1124E35136
:10343000FB4F81E090E095A784A785E090E0938B17
:10344000828B77CCCF92DF92EF92FF920F931F93F4
:1034500024E4269FF001279FF00D1124E351FB4F38
:10346000228933892115310509F452C06B017C0191
:1034700021303105B1F482A593A59C012F5F3F4F08
:1034800033A722A7092E000CAA0BBB0B028D138DAC
:10349000248D358D80179107A207B307C9F5C701A1
:1034A0003CDB84E48C9DF0018D9DF00D1124E351F3
:1034B000FB4F82899389039759F582A593A59C01B7
:1034C0002F5F3F4F33A722A7092E000CAA0BBB0B7F
:1034D000468D578D60A171A184179507A607B70780
:1034E000BCF086AD97AD93A782A784E090E0938B64
:1034F000828B82AD93ADA4ADB5AD181619061A0630
:103500001B0634F4EE5BFF4F81E090E091838083F3
:103510001F910F91FF90EF90DF90CF90089524E4DA
:10352000269FF001279FF00D1124E351FB4F828964
:1035300093890497B1F482A593A5019693A782A7D6
:10354000092E000CAA0BBB0B46895789608D718D23
:1035500084179507A607B70721F485E090E0938BC1
:10356000828B08952F923F924F925F926F927F923B
:103570008F929F92AF92BF92CF92DF92EF92FF9283
:103580000F931F93CF93DF93CDB7DEB72E970FB670
:10359000F894DEBF0FBECDBFDC0149835A836B8335
:1035A0007C83290184E4849FF001859FF00D112420
:1035B000E351FB4F22883388C1010497029708F03A
:1035C000D5C011961C921E9213961C921E921297B1
:1035D00015861486912C812C90E080E08F019F014C
:1035E000205F3F4F38872F833F013CE0630E711C03
:1035F000BF01625F7F4F7A8769873A96FC87EB87C6
:10360000EF81F88520813181F30140815181E98585
:10361000FA85A080B180841595050CF445C01196FB
:103620005C934E9313963C932E9312971596BC92EF
:10363000AE921497452BF9F4F5E02F163104D9F426
:1036400010927505F801828D938DA48DB58DAE0114
:103650004F5F5F4F64E070E08F3F9F4FAF4FBF4FB2
:1036600009F079C080E290E0F6D469817A818B819B
:103670009C81A201A7DA2E960FB6F894DEBF0FBE8A
:10368000CDBFDF91CF911F910F91FF90EF90DF9011
:10369000CF90BF90AF909F908F907F906F905F90F2
:1036A0004F903F902F900895EB85FC85608171814C
:1036B000FB01E80DF91DFE87ED8760817181672BA5
:1036C00089F5E084F184628173817E836D836681F4
:1036D00077816A01E3E0CC0CDD1CEA95E1F72C0D63
:1036E0003D1D440F551F4A0D5B1DFA0191838083D8
:1036F000F301408151814F5F5F4F51834083F90156
:10370000F382E282ED85FE8573876287E616F7060F
:1037100070F46E197F09F901718360831582148238
:10372000178216820196FEE08F0E911C69CFED85FF
:10373000FE85C480D5804D815E814C0D5D1D4E1986
:103740005F09F901518340836C197D097583648396
:10375000D782C682E7CF8FE190E07DD4F80113A62F
:1037600012A681E090E0938B828B85CF158614861C
:1037700011961C921E9213961C921E9212977BCF4A
:10378000EF92FF920F931F93CF93DF937C018B01F6
:10379000EA013DD581111BC0809110039091110366
:1037A0000497F9F4DF91CF911F910F91FF90EF9063
:1037B000089528ED38EB45E050E060E070E0CB0183
:1037C000DCD7AE01B801C701E6D7C801AFD78091F9
:1037D000760590917705892BF9F68881882349F33E
:1037E000DBCF83E090E09093110380931003DACF56
:1037F000CF93DF93209110033091110324303105D2
:1038000031F0EB01C8D7CE01DF91CF918FC7DF91A7
:10381000CF9108950C94C9270C94BE270C94AC2723
:1038200095C70C945027089570E060E090E080E028
:10383000C9C40895AF92BF92CF92DF92EF92FF92E8
:103840000F931F93CF93DF931F921F92CDB7DEB7D5
:103850005C018B0169017A0190E080E0C114D10420
:10386000E104F10469F40F900F90DF91CF911F9163
:103870000F91FF90EF90DF90CF90BF90AF900895A1
:103880009C2D8D2DC114D10421E0E206F10410F02D
:103890009FEF8FEF9E012F5F3F4F492F582FB801A9
:1038A000C5010E9452288F3F9807E9F229813A8189
:1038B000C21AD30AE108F108020F131FCFCF40E864
:1038C00055E260E070E090E080E000C0813091055A
:1038D00079F01CF4892B39F008958230910561F05C
:1038E000039771F0089526E08DEA95E00C94222F5D
:1038F00026E08AE496E0FACF26E087EE96E0F6CF5F
:1039000026E084E897E0F2CF1F920F920FB60F9255
:1039100011240BB60F922F933F934F935F936F93A6
:103920007F938F939F93AF93BF93EF93FF938EE11A
:103930009BEF90932501809324010E948C28FF9196
:10394000EF91BF91AF919F918F917F916F915F9117
:103950004F913F912F910F900BBE0F900FBE0F9084
:103960001F9018958EE19BEF909325018093240181
:10397000A3E7B0E08C918E7F8C93E0E2F1E0808150
:103980008C7F8083E1E2F1E08081877E808380818B
:103990008460808380818C7F80838C9181608C9314
:1039A000089581E008958F929F92AF92BF92CF9237
:1039B000DF92EF92FF920F931F93CF93DF935C01FF
:1039C0007B018A01C1E0D0E0CE15DF05CCF081E0BB
:1039D000F5018083B801C7010E94F327F5019283A6
:1039E000818390E080E0DF91CF911F910F91FF9054
:1039F000EF90DF90CF90BF90AF909F908F90089501
:103A00006E018FEFC81AD80AFE01EE0FFF1FE00FFC
:103A1000F11F808091808114910469F067EA73E05E
:103A2000C4010E948033892B41F4CC0FDD1FC00FED
:103A3000D11F19821882E601C7CF6AEA73E0C40178
:103A40000E948033892BB9F7EC14FD04A1F36E01B9
:103A5000E2E0CE0ED11CCC0FDD1FC00FD11F1982AA
:103A600018821B821A82E7CF88E795E0089580E0EC
:103A700008950F931F93CF93DF938B01BA01E90150
:103A8000198218829801012E000C440B550BFC0181
:103A900081819281CFDE019641F01983088380E015
:103AA000DF91CF911F910F91089581E0F9CF0F938E
:103AB0001F93CF93DF931F921F92CDB7DEB7FB0109
:103AC0008A01B9019E012F5F3F4FAF01FC01818147
:103AD00092810E940728019669F089819A81F801F4
:103AE0009183808380E00F900F90DF91CF911F91A1
:103AF0000F91089581E0F7CFFC018081089508952A
:103B0000089581E0FB01808380E00895089510927C
:103B1000A0050895FC01818192810C94EB27CF933D
:103B2000DF9300D000D000D01F92CDB7DEB7B0E059
:103B3000A0E089839A83AB83BC83CB01770FAA0B68
:103B4000BB0B8D839E83AF83B8879E01275F3F4F5A
:103B5000AE014F5F5F4F68E070E080918F059091FC
:103B6000900587DF811110C081E029853A852830D2
:103B7000310509F480E02A960FB6F894DEBF0FBE37
:103B8000CDBFDF91CF91089581E0F5CF0F931F93C3
:103B9000CF93DF931F921F92CDB7DEB78B019E01AB
:103BA0002F5F3F4FAC0180918F059091900561DFB1
:103BB00081110EC081E029813A812017310709F473
:103BC00080E00F900F90DF91CF911F910F9108959A
:103BD00081E0F7CFCF93DF93EC0110929305109221
:103BE000920510929F0510929E05AC0160E070E076
:103BF000CB010E94E215AE0161E070E080E090E050
:103C00000E94E21580918F0590919005DF91CF91F0
:103C10007DCF4F925F926F927F928F929F92AF92E1
:103C2000BF92CF92DF92EF92FF920F931F93CF93A9
:103C3000DF931F921F92CDB7DEB78C017C0197FFF7
:103C400003C087E0E80EF11C23E0F594E7942A9581
:103C5000E1F7C80168E070E00E94E0316C010E5F9E
:103C60001F4F80918D0590918E0580179107D4F498
:103C700080918B0590918C05009731F00E94E7327E
:103C800010928E0510928D05C8010E944B329093C0
:103C90008C0580938B05892B09F482C010938E05C7
:103CA00000938D0510E000E047C1412C512C3201FA
:103CB000B12CA12C95012C563A4FAE014F5F5F4FAE
:103CC00061E070E080918F0590919005F0DE8111A8
:103CD00049C0EFEF4E1A5E0A6E0A7E0AF0E94F16EF
:103CE000FFE55F06F1E06F06710444F060919E0508
:103CF00070919F058DEE90E012DFD7CF89819A8178
:103D0000A80EB91E8AE0A816B10409F043C049E024
:103D100050E070E060E084E995E00E947E286091C8
:103D20009E0570919F05882391F180919C0590E0FC
:103D30008617970781F4BC018EEE90E0F0DE80914B
:103D40009E0590919F050196992790939F058093DA
:103D50009E050F5F1F4F0E151F050CF4A6CFCD2833
:103D600009F07CC090E080E00F900F90DF91CF9140
:103D70001F910F91FF90EF90DF90CF90BF90AF9089
:103D80009F908F907F906F905F904F9008958FEEEF
:103D900090E0B2CFEAE0AE16B1040CF48BCFDBCFEB
:103DA00010E000E0D8CF0A30110531F549E050E0CD
:103DB00070E060E084E995E00E947E2860919E05B5
:103DC00070919F058823A9F080919C0590E086174B
:103DD000970741F6BC018EEE90E0A1DE80919E0532
:103DE00090919F050196992790939F0580939E053A
:103DF000B9CF8FEE90E02BC00A3011050CF0B2CF96
:103E000098012C563A4FAE014F5F5F4F61E070E072
:103E100080918F05909190054ADE8111A3CF898111
:103E20009A81080F191FFFEFCF1ADF0AEF0AFF0A66
:103E300080E9C8168FE5D80681E0E806F1040CF4A5
:103E4000B2CF60919E0570919F058DEE90E067DE88
:103E500010E000E0C12CD12C7601D2CFC12CD12CA6
:103E6000760110E000E0CCCF412C512C3201B12C76
:103E7000A12C480193E0880C991C9A95E1F72091B8
:103E80008B0530918C05C501880D991D280F391FB0
:103E9000AE014F5F5F4F61E070E080918F059091C0
:103EA000900505DE81115ECFEFEF4E1A5E0A6E0AB5
:103EB0007E0A60919E0570919F058DEE90E0F0E97D
:103EC0004F16FFE55F06F1E06F0671040CF043C08A
:103ED00089819A81A80EB91E8AE0A816B10409F05A
:103EE00041C049E050E0B40180918B0590918C0570
:103EF0000E947E2860919E0570919F05882349F15C
:103F000080918B0590918C05880E991EF401808517
:103F100090E08617970781F4BC018EEE90E0FFDDFC
:103F200080919E0590919F050196992790939F05FA
:103F300080939E050F5F1F4F0E151F050CF494CF45
:103F4000C114D10409F081C080918B0590918C053A
:103F50000BCF8FEE90E0E3DD412C512C3201B12CE0
:103F6000A12C8DCFFAE0AF16B1040CF488CFE4CFCA
:103F70008FEE90E0D4DDF12CE12C812C912C5401BA
:103F800097012C563A4FAE014F5F5F4F61E070E0F2
:103F900080918F05909190058ADD8111E3CE8FEF9E
:103FA000881A980AA80AB80A60919E0570919F0520
:103FB0008DEE90E0E0E98E16EFE59E06E1E0AE06BC
:103FC000B104C4F689819A81E80EF91EFAE0EF1671
:103FD000F104A9F549E050E070E060E084E995E083
:103FE0000E947E2860919E0570919F05882309F4A8
:103FF000BFCF80919C0590E08617970709F0A4CF6A
:10400000BC018EEE90E08BDD83E0000F111F8A95DE
:10401000E1F780918B0590918C05A60164E975E02C
:10402000800F911F0E94703380919E0590919F0593
:104030000196992790939F0580939E0585CF8AE0EE
:10404000E816F1040CF49CCF7FCF812C912C540105
:10405000F12CE12C95CFCF92DF92EF92FF920F934C
:104060001F93CF93DF931F92CDB7DEB76C017B0117
:104070008A01452B39F0AB0170E060E0C8010E9475
:104080007A288983B701C6014ADD81110DC0011567
:10409000110551F0B701C80179DD811105C061E05A
:1040A00070E0CE01019672DD0F90DF91CF911F91EC
:1040B0000F91FF90EF90DF90CF900895CF92DF9215
:1040C000EF92FF92CF93DF9300D000D01F921F9208
:1040D000CDB7DEB76B01F12CE12CC982DA82EB821D
:1040E000FC822D833E834F835887AE014F5F5F4F25
:1040F00068E070E0B0DF28960FB6F894DEBF0FBE20
:10410000CDBFDF91CF91FF90EF90DF90CF900895DA
:104110008F929F92AF92BF92CF92DF92EF92FF92D7
:104120000F931F93CF93DF937C01EB01CA016901C9
:1041300070DD0097B1F42FEF3FEFA90161E070E06F
:10414000C701BCDFC1E08C2FDF91CF911F910F9190
:10415000FF90EF90DF90CF90BF90AF909F908F90A7
:104160000895FC0181909190A190B190BF01FCE174
:10417000EF16F10479F4A5019401CE010E944814D0
:10418000C82FA5019401882369F061E070E0C701A0
:1041900095DFD9CF95018401AB01B601CE010E9414
:1041A0004B12EECF70E060E0C701DF91CF911F911D
:1041B0000F91FF90EF90DF90CF90BF90AF909F90C6
:1041C0008F907CCF0F931F93CF93DF93EC018B01E4
:1041D0004BDC9093900580938F050097A9F0A80180
:1041E000BE01E1DBEC01892B49F080918F059091B4
:1041F000900585DC1092900510928F05CE01DF911D
:10420000CF911F910F910895C6EBD3E0EECF80912F
:104210008F059091900570CC2F923F924F925F92B4
:104220006F927F928F929F92AF92BF92CF92DF92C6
:10423000EF92FF920F931F93CF93DF93CDB7DEB72B
:1042400069970FB6F894DEBF0FBECDBF20919305DE
:104250002223F1F05B8B4A8B6E877F87888B998B4B
:104260009A01AB01BC01CE0101967C017BD910E023
:1042700048E0242E312CE88EF98E89819A81181617
:1042800019060CF450C2112319F08A899B89A2DC0B
:1042900069960FB6F894DEBF0FBECDBFDF91CF9108
:1042A0001F910F91FF90EF90DF90CF90BF90AF9054
:1042B0009F908F907F906F905F904F903F902F9046
:1042C0000895EB81FC818C859D8533E0880F991FD3
:1042D0003A95E1F7E80FF91F8081918190938A0563
:1042E00080938905248135814281538150938805CB
:1042F00040938705468157815093860540938505F5
:10430000820F931F9C01990F440B550B2C8B3D8BF7
:104310004E8B5F8B812C912C54018C899D89AE89A9
:10432000BF8988169906AA06BB0638F18C859D853B
:10433000880F991FED81FE81E80FF91F4E855F857B
:1043400068897989808191810E941416AC85BD8528
:104350001196BD87AC8789819A81EC85FD85E81728
:10436000F9070CF4AECF2A893B894E855F856889B1
:104370007989888D998DF6D880CF1F8260918905C3
:1043800070918A05CB01072E000CAA0BBB0B840190
:104390007501640134E0C30ED11CE11CF11CC81688
:1043A000D906EA06FB0608F0B3C0209187053091D4
:1043B0008805A4014C5F5F4F240F351FF901C080B1
:1043C000D12CF12CE12C24013501F5E04F0E511CCC
:1043D000611C711C481659066A067B0608F0A3C0CA
:1043E0002091870530918805F8013596E20FF31F7B
:1043F0002081D22A2401350126E0420E511C611C85
:10440000711C481659066A067B0608F097C0209171
:10441000870530918805F8013696E20FF31F208159
:10442000E22A2401350137E0430E511C611C711C46
:10443000481659066A067B0608F08BC0209187054E
:1044400030918805F8013796E20FF31F208126018D
:104450003701722A7501640148E0C40ED11CE11CC9
:10446000F11C8C159D05AE05BF0508F41DC188160D
:104470009906AA06BB0608F077C08091870590913F
:104480008805800F911F68E070E080DBE09189056E
:10449000F0918A059F010F2E000C440B550BD301A0
:1044A000C2018C0D9D1DAE1DBF1D281739074A077F
:1044B0005B0708F478C0C216D306E406F50608F0D8
:1044C0005DC080918705909188059801285F3F4FD6
:1044D000820F931FB2015ADB8091890590918A0562
:1044E000AC01092E000C660B770BC416D506E60648
:1044F000F70608F04DC0085F1F4F80918705909127
:104500008805800F911FA20170E060E0F3D5A7C07D
:1045100044E050E0461B570B480D591D209185057E
:104520003091860549CFE5E0F0E0E61BF70BE00FA0
:10453000F11F209185053091860558CFE6E0F0E027
:10454000E61BF70BE00FF11F2091850530918605E2
:1045500064CFE7E0F0E0E61BF70BE00FF11F2091DE
:1045600085053091860570CF9801261B370B809109
:10457000850590918605820F931F85CF91012E1B93
:104580003F0B200F311F8091850590918605A0CFAC
:10459000D101A81BB90BCD01080F191F809185050A
:1045A00090918605AECFBF0168507109601B710BF9
:1045B000C216D306E406F50608F062C080918705AE
:1045C000909188059801285F3F4F820F931FDEDA94
:1045D0008091890590918A05B101681B790B600F64
:1045E000711F640D751D8091850590918605CEDA49
:1045F0008091890590918A05AC0148505109FA01D2
:10460000E01BF10BAC01092E000C660B770BC416F6
:10461000D506E606F70608F03DC080918705909123
:1046200088059801285F3F4F820F931FAF0170E00C
:1046300060E060D58F832091890530918A05F10172
:10464000E21BF30B9F01200F311F240D351D50E09D
:1046500040E0682F809185059091860537D58F833E
:1046600061E070E0CE01079691DA182F38E0430E32
:10467000511C611C711C840C951CA61CB71C4DCED2
:1046800091012E1B3F0B200F311F809185059091CA
:1046900086059BCF9101281B390B200F311F80917C
:1046A000850590918605C0CF88169906AA06BB0697
:1046B00068F5601B710B8091870590918805800FCC
:1046C000911F64DA8091890590918A05B101681B78
:1046D000790B600F711F640D751D80918505909198
:1046E000860554DA8091890590918A05AC01092EDE
:1046F000000C660B770BC416D506E606F70608F421
:10470000FACE9101281B390BC90146CFC801861B7F
:10471000970B2091850530918605B201685F7F4F28
:10472000820F931FDECF1D861C8615CECF93DF939D
:10473000EC01AC0160E070E0CB016EDDAE0161E048
:1047400070E080E090E0DF91CF9166CDCF938091D3
:104750008F05909190058BD9C82F81110BC060E017
:1047600070E0CB010E940D1161E070E080E090E00C
:104770000E940D118C2FCF9108950F931F938901E3
:104780009A01AB01BC0180918F0590919005B8D939
:104790001F910F9108954F925F926F927F928F9227
:1047A0009F92AF92BF92CF92DF92EF92FF920F93C0
:1047B0001F93CF93DF93CDB7DEB763970FB6F8940F
:1047C000DEBF0FBECDBF6C018B015A0180919305F6
:1047D000882309F43DC080919305882309F442C0E1
:1047E000809192051A821982882309F4C0C0F0E9E9
:1047F0004F2EFFE55F2E66246394712CF12CE12C83
:10480000970125583A4FAE014F5F5F4F61E070E06E
:1048100080918F05909190054AD9982E811169C099
:1048200089819A81E80EF91EE114F10409F461C04E
:1048300081E0481A51086108710859F560919E0598
:1048400070919F058DEE90E06AD91A82198251C04D
:1048500063E975E080918F059091900552D9882386
:1048600009F4B9CF63960FB6F894DEBF0FBECDBF83
:10487000DF91CF911F910F91FF90EF90DF90CF903C
:10488000BF90AF909F908F907F906F905F904F9070
:104890000895AAE0EA16F10409F063C049E050E087
:1048A00070E060E08BE795E029D460919E057091FF
:1048B0009F05882309F452C08091830590E08617F4
:1048C000970719F6BC018EEE90E029D988E0EBE756
:1048D000F5E0DE01199601900D928A95E1F780913D
:1048E0009E0590919F050196992790939F0580932F
:1048F0009E0581E029813A81121613060CF080E0B2
:104900009110CAC2882309F4ADCF8091920581111C
:1049100004C019861A861B861C8689859A85AB85F4
:10492000BC8580319105A105B10508F09BCFFC0144
:104930008827E256FB4D8F4F0C9415321E25DD263D
:104940004C273224222655260E251625F2243127FF
:1049500020272D27322432243224DD248FEE90E0CC
:1049600073CFBAE0EB16F1040CF44ACFC2CFF12CAE
:10497000E12CE8E06E2E712C29E030E02C0F3D1F79
:104980002E0D3F1DAE014F5F5F4FB3016E197F09C2
:1049900080918F05909190058AD8982E29813A812F
:1049A000811109C0E20EF31EE114F10421F0E8E0E8
:1049B000EE16F1040CF381E09FCFD6011696ED912F
:1049C000FC9180819181A281B38189839A83AB8399
:1049D000BC83AE014F5F5F4F64E070E085E190E023
:1049E0003ADB40CF8D859E8514D92FEF3FEFA9018B
:1049F00061E070E0009771F0FC01C080D180E2803E
:104A0000F380A801C701B6010E948D15A701960188
:104A100070E060E08DE190E051DB24CF4D855E8554
:104A20009801B6018BE190E073DB1CCF4D855E856C
:104A30002FEF3FEFB6018CE190E0F6CFD601149650
:104A4000ED91FC9100811181F80182809380A0801A
:104A5000B18070E1472E512C612C712C49825A8211
:104A60006B827C8288E090E0A0E0B0E08D839E8342
:104A7000AF83B8879E012F5E3F4FAE014F5F5F4F00
:104A800068E070E080918F05909190050E94391D3B
:104A90008823D9F010E000E0C80163960FB6F894BF
:104AA000DEBF0FBECDBFDF91CF911F910F91FF9061
:104AB000EF90DF90CF90BF90AF909F908F907F90BE
:104AC0006F905F904F900C94E73289899A8908978C
:104AD00009F7D801ED90FC90B8E0EB0EF11CEE0C5C
:104AE000FF1CEE0CFF1CC7010E944B328C01892B6E
:104AF00089F249825A826B827C82C7010F2C000C9A
:104B0000AA0BBB0B8D839E83AF83B8879E012F5E5C
:104B10003F4FAE014F5F5F4F68E070E080918F05BF
:104B2000909190050E94391D8111B6CF89899A898B
:104B3000089709F0B1CFD6011296ED91FC91408112
:104B4000518162817381D8014D935D936D937C9304
:104B50001397448155816681778114964D935D93B7
:104B60006D937C9317974085518562857385189660
:104B70004D935D936D937C931B9784859585A68556
:104B8000B785F80184879587A687B787108A118A29
:104B9000128A138A84E090E0A0E0B0E0848B958BC9
:104BA000A68BB78B8091100390911103B0E0A0E029
:104BB000808F918FA28FB38FC5010B2C000CAA0B95
:104BC000BB0B848F958FA68FB78FF401D801909679
:104BD00090E080E08A159B055CF19E012F5E3F4FBF
:104BE000A801B70180918F05909190050E94391D11
:104BF000811152CF89899A89E816F90609F04CCFBC
:104C0000A70170E060E0C80175D28B8B9E012F5E1A
:104C10003F4FAE014D5E5F4F61E070E080918F05C8
:104C2000909190050E94391D81E08093920534CFC8
:104C30004191519170E060E04D935D936D937D9350
:104C40000196C8CF8D859E85AF85B8890097A1054F
:104C5000B10521F481E08093910504CE0E94091EE4
:104C6000009781F481E090E0A0E0B0E089839A832E
:104C7000AB83BC83AE014F5F5F4F64E070E082E1C5
:104C800090E0AECEBC01C6010E94671019821A8264
:104C90001B821C82AE014F5F5F4F64E070E082E1D7
:104CA00090E0D9D98823B1F2DDCDD6011496ED91EB
:104CB000FC910190F081E02DE084F1848FEF8983F5
:104CC000E114F10409F472C0D7016D907C90C280A8
:104CD000D38070E060E090E080E08615970594F066
:104CE00083E190E00E948F1D10E000E08111BACDB9
:104CF000061517055CF161E070E0CE0101960E9497
:104D0000C61DB0CD9C0143E0220F331F4A95E1F749
:104D1000F701A281B381A20FB31F1296ED91FC910E
:104D20001397EE0FFF1FEC0DFD1D0190F081E02D9C
:104D300016964D915C91E49F9001E59F300DF49F94
:104D4000300D1124620F731F0196C7CFD701129641
:104D5000ED91FC91C80123E0880F991F2A95E1F796
:104D6000E80FF91FA080B180A281B381AA0FBB1FF9
:104D7000AC0DBD1D2D913C9186819781289F4001EE
:104D8000299F900C389F900C1124B401C5010E94FA
:104D9000C61D582E940150E040E06981C50196D1AE
:104DA000898351105FCD0F5F1F4FA2CF70E060E08D
:104DB00083E190E00E948F1D55CD50E040E070E00F
:104DC00060E081E190E047D981114CCD60E070E076
:104DD000CB010E94321280917505882329F0A80129
:104DE00060E070E0CB0118DAA80160E070E0CB0170
:104DF0000E94391161E070E080E090E00E94321280
:104E000080917505882331F0A80161E070E080E0B1
:104E100090E002DAA80161E070E080E090E00E949A
:104E20003911109293051092920510929F051092DD
:104E30009E0580918F05909190050E94871D12CD4F
:104E400081E090E0909377058093760550E040E014
:104E500070E060E086E190E0C3CD81E0F501808301
:104E600001CD8D859E850E94091E2FEF3FEFA90180
:104E700061E070E0009769F0DC01CD90DD90ED908D
:104E8000FC90C701B6010E94ED15A701960170E0E4
:104E900060E08EE190E0C0CDC8010E94EA1DE2CC46
:104EA000CF92DF92EF92FF92CF93DF93EC01C12C70
:104EB000D12C7601C701B6010E943212AE01C701A2
:104EC000B601AAD9AE01C701B6010E94391180917D
:104ED0008B0590918C05009731F00E94E73210927B
:104EE0008C0510928B05CA94CD28CE28CF2879F551
:104EF00080919205F12C882351F050E040E070E061
:104F000060E084E190E0A7D8F82E1092920580919D
:104F10009305882341F01092930581E090E09093EF
:104F200011038093100380918F05909190050E944A
:104F30008A1D80918F05909190050E947F1D8F2D75
:104F4000DF91CF91FF90EF90DF90CF900895C12C2B
:104F5000D12C7601C394AECFCF93DF93EC01AC019B
:104F600060E070E0CB010E94221AAE0161E070E0C7
:104F700080E090E0DF91CF910C94221A60E070E025
:104F8000CB010E948F1A61E070E080E090E00C9409
:104F90008F1ACF92DF92EF92FF920F931F93CF93CE
:104FA000DF93EC016A017B0100E010E098010E94B0
:104FB0003D1601E010E020E030E0B701A601CE018F
:104FC0000E943D16DF91CF911F910F91FF90EF90BE
:104FD000DF90CF90089568EE73E080E090E0D0D548
:104FE00090E080E0089526E040E855E260E070E05F
:104FF0008DEA95E027D78DEA95E05AD6892B21F0E6
:105000008DEA95E06FD6F7CF90E080E00895CF92DB
:10501000DF92EF92FF920F931F93CF93DF936B0179
:105020007A01E901198218828DEA95E041D6892B2F
:1050300071F18601CC24C39485E6D82E8091A00519
:10504000811111C08DEA95E04DD685369105B1F7F5
:10505000C092A005F801D1928F01888199810196B3
:1050600099838883EBCF888199818E159F0578F489
:105070008DEA95E037D68F3F9807A9F3F801819321
:105080008F0188819981019699838883ECCF90E084
:1050900080E0DF91CF911F910F91FF90EF90DF9013
:1050A000CF9008950F931F93CF93DF93EA01890167
:1050B0008DEA95E00E94B231F801D183C08390E07F
:1050C00080E0DF91CF911F910F910895DC01A40F33
:1050D000B51F420F531F9D01281B390B241735079D
:1050E00010F0862F0895ED91E627F0E0E85AFE4F84
:1050F0006491F1CF9A01AB016FEFE8CFCF93FC0140
:10510000E60FF71FE40FF51FC081F4DF91E0C8132D
:1051100090E0892FCF9108958091A10591E0980F9B
:105120009093A105882349F021E030E03093A30556
:105130002093A2058093A105089578940E942503E9
:10514000F8948091A10581508093A1050C940C1CCA
:10515000DF92EF92FF920F931F93CF93DF931F92F3
:10516000CDB7DEB710925109109250093FD50E9479
:105170005F1C0091390310913A03F80111821082EB
:1051800070E060E090E080E00E94141C0E94440DFA
:10519000F8947894C80186559F4F0E94131C82E0B2
:1051A00090E00E94101C1982AE014F5F5F4F62E0D9
:1051B00070E0F801828193810E94C01B898188235D
:1051C00029F081E0F801E055FF4F80830E94191C0F
:1051D000F8940E94B21CF80180819181892B29F4F6
:1051E00081E0E055FF4F9081911180E0809350095C
:1051F000789478947801F0EBEF0EF11CDD24D394D1
:1052000080915009811112C00E94A20E82E090E0AC
:105210000E94111CF89490E080E00F90DF91CF91F4
:105220001F910F91FF90EF90DF9008951982AE01CA
:105230004F5F5F4F62E070E0F801828193810E94CE
:10524000F81B8981882311F0F701D082F801808151
:105250009181892B91F481E0F7019081911101C036
:1052600080E0809351099091510981E0911180E093
:10527000809350090E94D11CC3CF81E0F2CF9F934D
:105280009F7710D20F9000203AF49058A2EA2AEDAE
:105290003FE049E450E413D0D1C25058BB27AA27BD
:1052A0000ED0CCC295D230F09AD220F031F49F3F8C
:1052B00011F41EF465C20EF4E095E7FB32C2E92F4B
:1052C000DFD280F3BA17620773078407950718F0D7
:1052D00071F49EF50EC30EF4E0950B2EBA2FA02D9F
:1052E0000B01B90190010C01CA01A0011124FF2793
:1052F000591B99F0593F50F4503E68F11A16F0408E
:10530000A22F232F342F4427585FF3CF469537958C
:105310002795A795F0405395C9F77EF41F16BA0B51
:10532000620B730B840BBAF09150A1F0FF0FBB1FFF
:10533000661F771F881FC2F70EC0BA0F621F731F48
:10534000841F48F4879577956795B795F7959E3FA5
:1053500008F0B3CF9395880F08F09927EE0F979533
:105360008795089535D258F080E891E009F49EEFD2
:1053700036D228F040E851E059F45EEF09C000C28F
:10538000B8C2E92FE0787CD268F3092E052AC1F370
:10539000261737074807590738F00E2E07F8E0257B
:1053A00069F0E025E0640AC0EF6307F8009407FAAB
:1053B000DB01B9019D01DC01CA01AD01EF934AD0C7
:1053C0003DD20AD05F91552331F02BED3FE049E407
:1053D00050FD49EC63CF0895DF93DD27B92FBF77E8
:1053E00040E85FE31616170648075B0710F4D92F4D
:1053F0008BD29F938F937F936F9338D3E4EEF0E03B
:10540000C2D11CD22F913F914F915F9190D2DD2359
:1054100049F09058A2EA2AED3FE049EC5FE3D078EA
:105420005D274DDFDF910AC258D108F481E008956D
:10543000DED1E39514C20CD001C2D1D140F0C8D165
:1054400030F021F45F3F19F06CC1511153C298C183
:1054500017D298F39923C9F35523B1F3951B550B34
:10546000BB27AA2762177307840738F09F5F5F4F37
:10547000220F331F441FAA1FA9F333D00E2E3AF078
:10548000E0E830D091505040E695001CCAF729D092
:10549000FE2F27D0660F771F881FBB1F26173707E1
:1054A0004807AB07B0E809F0BB0B802DBF01FF2711
:1054B00093585F4F2AF09E3F510568F032C11AC2DF
:1054C0005F3FECF3983EDCF3869577956795B7954B
:1054D000F7959F5FC9F7880F911D9695879597F966
:1054E0000895E1E0660F771F881FBB1F62177307DF
:1054F0008407BA0720F0621B730B840BBA0BEE1FF4
:1055000088F7E095089504D06894B111F3C1089527
:10551000BFD188F09F5790F0B92F9927B751A0F0CD
:10552000D1F0660F771F881F991F1AF0BA95C9F737
:1055300012C0B13081F0DDD1B1E00895DAC1672F3A
:10554000782F8827B85F39F0B93FCCF386957795E7
:105550006795B395D9F73EF49095809570956195D0
:105560007F4F8F4F9F4F0895E89409C097FB3EF4FB
:1055700090958095709561957F4F8F4F9F4F9923A0
:10558000A9F0F92F96E9BB279395F695879577951E
:105590006795B795F111F8CFFAF4BB0F11F460FFDE
:1055A0001BC06F5F7F4F8F4F9F4F16C0882311F036
:1055B00096E911C0772321F09EE8872F762F05C04A
:1055C000662371F096E8862F70E060E02AF09A95E5
:1055D000660F771F881FDAF7880F9695879597F9DA
:1055E000089570D180F09F3740F491110EF082C180
:1055F00060E070E080E89FEB089526F41B16611DC3
:10560000711D811D94C0AEC0E3D018F011F0E7D039
:1056100038F4B6C06FC1E92F33D1B0F35523C9F3C5
:10562000E7FB6217730784079507A8F199F3E92F41
:10563000FF2788232AF03197660F771F881FDAF734
:10564000952F5527442332F091505040220F331F9D
:10565000441FD2F7BB27E91BF50B621B730B840BAE
:10566000B109C1F222F4620F731F841FB11D31977B
:105670002AF0660F771F881FBB1FEFCF9150504055
:105680005AF041F0882332F0660F771F881F91503F
:105690005040C1F7939566C08695779567959F5F53
:1056A000D9F7F8CFDF93CF931F930F938B01EC01C2
:1056B000E1E1F1E068D0C2D09801AE018B01EC01CC
:1056C00060E070E080E89FE3E8DD92D19801AE01F0
:1056D0000F911F91CF91DF912AC1990F0008550FAB
:1056E000AA0BE0E8FEEF16161706E807F907C0F068
:1056F00012161306E407F50798F0621B730B840B70
:10570000950B39F40A2661F0232B242B252B21F449
:1057100008950A2609F4A140A6958FEF811D811DE9
:10572000089597F99F6780E870E060E00895882306
:1057300071F4772321F09850872B762F07C06623CA
:1057400011F499270DC09051862B70E060E02AF08B
:105750009A95660F771F881FDAF7880F96958795B9
:1057600097F908959F3F31F0915020F487957795F0
:105770006795B795880F911D9695879597F9089528
:105780009FEF80EC0895DF93CF931F930F93FF92C9
:10579000EF92DF927B018C01689405C0DA2EEF0155
:1057A000C6D0FE01E894A59125913591459155917A
:1057B000AEF3EF0184DDFE019701A801DA9479F7D9
:1057C000DF90EF90FF900F911F91CF91DF9108959F
:1057D00000240A94161617061806090608950024D0
:1057E0000A9412161306140605060895C9CF50D060
:1057F000E8F3E894E0E0BB279F57F0F02AED3FE0A4
:1058000049EC06C0EE0FBB0F661F771F881F28F0FC
:10581000B23A62077307840728F0B25A620B730B1F
:10582000840BE3959A9572F7803830F49A95BB0F04
:10583000661F771F881FD2F7904896CF092E0394D2
:10584000000C11F4882352F0BB0F40F4BF2B11F46D
:1058500060FF04C06F5F7F4F8F4F9F4F0895EF939E
:10586000E0FF06C0A2EA2AED3FE049EC5FEB27DD4E
:10587000E5DF0F90039401FC9058E9E3F1E000C1EB
:1058800057FD9058440F551F59F05F3F71F04795F1
:10589000880F97FB991F61F09F3F79F087950895D6
:1058A000121613061406551FF2CF4695F1DF08C0F5
:1058B000161617061806991FF1CF86957105610512
:1058C00008940895E5DFA0F0BEE7B91788F4BB2778
:1058D0009F3860F41616B11D672F782F8827985FC0
:1058E000F7CF869577956795B11D93959639C8F34F
:1058F0000895E894BB2766277727CB0197F9089589
:10590000ECDE08F48FEF08959B01AC0160E070E0DD
:1059100080E89FE390CD0BD091CF5ADF28F05FDF76
:1059200018F0952309F0FDCE2BCF1124E3CFA8DF8B
:10593000A0F3959FD1F3950F50E0551F629FF001A2
:10594000729FBB27F00DB11D639FAA27F00DB11DFB
:10595000AA1F649F6627B00DA11D661F829F222784
:10596000B00DA11D621F739FB00DA11D621F839F0B
:10597000A00D611D221F749F3327A00D611D231FE1
:10598000849F600D211D822F762F6A2F11249F572F
:1059900050408AF0E1F088234AF0EE0FFF1FBB1F52
:1059A000661F771F881F91505040A9F79E3F5105F1
:1059B00070F0B7CE9FCF5F3FECF3983EDCF3869557
:1059C00077956795B795F795E7959F5FC1F7FE2B9C
:1059D000880F911D9695879597F908959F9307DFF6
:1059E0000F9007FCEE5F3BCF11F40EF4C9CEBACE98
:1059F0004FDFD0F39923D9F3CEF39F57550B87FF91
:105A000038D00024A0E640EA90018058569597953A
:105A100028F4805C660F771F881F20F02617370751
:105A2000480730F4621B730B840B202931294A2B61
:105A3000A69517940794202531254A2758F7660F15
:105A4000771F881F20F026173707480730F4620BAE
:105A5000730B840B200D311D411DA09581F7B901F9
:105A6000842F9158880F9695879508959B01AC01D6
:105A700052CF91505040660F771F881FD2F708957C
:105A80009F938F937F936F93FF93EF939B01AC0151
:105A900042DFEF91FF9177DE2F913F914F915F9120
:105AA0003ACF1F920F920FB60F9211242F933F936C
:105AB0008F939F93AF93BF938091A5059091A60577
:105AC000A091A705B091A8053091A40523E0230F6C
:105AD0002D3758F50196A11DB11D2093A405809383
